{
  "contractName": "Prescription",
  "abi": [
    {
      "anonymous": false,
      "inputs": [
        {
          "indexed": false,
          "internalType": "uint256",
          "name": "id",
          "type": "uint256"
        },
        {
          "indexed": false,
          "internalType": "string",
          "name": "patientId",
          "type": "string"
        },
        {
          "indexed": false,
          "internalType": "string",
          "name": "doctorId",
          "type": "string"
        },
        {
          "indexed": false,
          "internalType": "string",
          "name": "medicationName",
          "type": "string"
        },
        {
          "indexed": false,
          "internalType": "uint256",
          "name": "timestamp",
          "type": "uint256"
        }
      ],
      "name": "PrescriptionCreated",
      "type": "event"
    },
    {
      "anonymous": false,
      "inputs": [
        {
          "indexed": false,
          "internalType": "uint256",
          "name": "id",
          "type": "uint256"
        },
        {
          "indexed": false,
          "internalType": "bool",
          "name": "isActive",
          "type": "bool"
        }
      ],
      "name": "PrescriptionUpdated",
      "type": "event"
    },
    {
      "inputs": [],
      "name": "prescriptionCount",
      "outputs": [
        {
          "internalType": "uint256",
          "name": "",
          "type": "uint256"
        }
      ],
      "stateMutability": "view",
      "type": "function",
      "constant": true
    },
    {
      "inputs": [
        {
          "internalType": "uint256",
          "name": "",
          "type": "uint256"
        }
      ],
      "name": "prescriptions",
      "outputs": [
        {
          "internalType": "uint256",
          "name": "id",
          "type": "uint256"
        },
        {
          "internalType": "string",
          "name": "patientId",
          "type": "string"
        },
        {
          "internalType": "string",
          "name": "doctorId",
          "type": "string"
        },
        {
          "internalType": "string",
          "name": "medicationName",
          "type": "string"
        },
        {
          "internalType": "string",
          "name": "dosage",
          "type": "string"
        },
        {
          "internalType": "string",
          "name": "frequency",
          "type": "string"
        },
        {
          "internalType": "string",
          "name": "duration",
          "type": "string"
        },
        {
          "internalType": "uint256",
          "name": "timestamp",
          "type": "uint256"
        },
        {
          "internalType": "bool",
          "name": "isActive",
          "type": "bool"
        },
        {
          "internalType": "string",
          "name": "notes",
          "type": "string"
        }
      ],
      "stateMutability": "view",
      "type": "function",
      "constant": true
    },
    {
      "inputs": [
        {
          "internalType": "string",
          "name": "_patientId",
          "type": "string"
        },
        {
          "internalType": "string",
          "name": "_doctorId",
          "type": "string"
        },
        {
          "internalType": "string",
          "name": "_medicationName",
          "type": "string"
        },
        {
          "internalType": "string",
          "name": "_dosage",
          "type": "string"
        },
        {
          "internalType": "string",
          "name": "_frequency",
          "type": "string"
        },
        {
          "internalType": "string",
          "name": "_duration",
          "type": "string"
        },
        {
          "internalType": "string",
          "name": "_notes",
          "type": "string"
        }
      ],
      "name": "createPrescription",
      "outputs": [
        {
          "internalType": "uint256",
          "name": "",
          "type": "uint256"
        }
      ],
      "stateMutability": "nonpayable",
      "type": "function"
    },
    {
      "inputs": [
        {
          "internalType": "uint256",
          "name": "_id",
          "type": "uint256"
        }
      ],
      "name": "getPrescription",
      "outputs": [
        {
          "internalType": "uint256",
          "name": "id",
          "type": "uint256"
        },
        {
          "internalType": "string",
          "name": "patientId",
          "type": "string"
        },
        {
          "internalType": "string",
          "name": "doctorId",
          "type": "string"
        },
        {
          "internalType": "string",
          "name": "medicationName",
          "type": "string"
        },
        {
          "internalType": "string",
          "name": "dosage",
          "type": "string"
        },
        {
          "internalType": "string",
          "name": "frequency",
          "type": "string"
        },
        {
          "internalType": "string",
          "name": "duration",
          "type": "string"
        },
        {
          "internalType": "uint256",
          "name": "timestamp",
          "type": "uint256"
        },
        {
          "internalType": "bool",
          "name": "isActive",
          "type": "bool"
        },
        {
          "internalType": "string",
          "name": "notes",
          "type": "string"
        }
      ],
      "stateMutability": "view",
      "type": "function",
      "constant": true
    },
    {
      "inputs": [
        {
          "internalType": "uint256",
          "name": "_id",
          "type": "uint256"
        }
      ],
      "name": "togglePrescriptionStatus",
      "outputs": [],
      "stateMutability": "nonpayable",
      "type": "function"
    },
    {
      "inputs": [],
      "name": "getPrescriptionsCount",
      "outputs": [
        {
          "internalType": "uint256",
          "name": "",
          "type": "uint256"
        }
      ],
      "stateMutability": "view",
      "type": "function",
      "constant": true
    }
  ],
  "bytecode": "0x6080604052600060015534801561001557600080fd5b5061105f806100256000396000f3fe608060405234801561001057600080fd5b50600436106100625760003560e01c80630641166e146100675780631c94b7721461009057806331dfc91b146100985780636b556942146100c15780636f16af10146100d6578063b6558498146100e9575b600080fd5b61007a610075366004610ce6565b6100f1565b6040516100879190610e93565b60405180910390f35b61007a6102a1565b6100ab6100a6366004610df9565b6102a7565b6040516100879a99989796959493929190610eac565b6100d46100cf366004610df9565b6106b4565b005b6100ab6100e4366004610df9565b61074d565b61007a610bc6565b600180546000918261010283610fec565b909155505060408051610140810182526001805480835260208084018d81528486018d9052606085018c9052608085018b905260a085018a905260c085018990524260e0860152610100850184905261012085018890526000928352828252949091208351815593518051939493610181938501929190910190610bcc565b506040820151805161019d916002840191602090910190610bcc565b50606082015180516101b9916003840191602090910190610bcc565b50608082015180516101d5916004840191602090910190610bcc565b5060a082015180516101f1916005840191602090910190610bcc565b5060c0820151805161020d916006840191602090910190610bcc565b5060e0820151600782015561010082015160088201805460ff1916911515919091179055610120820151805161024d916009840191602090910190610bcc565b509050507f46d8ebc0ff19da22ef88c9739d1cc6ccca626d96a7a562ad00a21263a18bc6616001548989894260405161028a959493929190610f5f565b60405180910390a150600154979650505050505050565b60015490565b600060208190529081526040902080546001820180549192916102c990610fb1565b80601f01602080910402602001604051908101604052809291908181526020018280546102f590610fb1565b80156103425780601f1061031757610100808354040283529160200191610342565b820191906000526020600020905b81548152906001019060200180831161032557829003601f168201915b50505050509080600201805461035790610fb1565b80601f016020809104026020016040519081016040528092919081815260200182805461038390610fb1565b80156103d05780601f106103a5576101008083540402835291602001916103d0565b820191906000526020600020905b8154815290600101906020018083116103b357829003601f168201915b5050505050908060030180546103e590610fb1565b80601f016020809104026020016040519081016040528092919081815260200182805461041190610fb1565b801561045e5780601f106104335761010080835404028352916020019161045e565b820191906000526020600020905b81548152906001019060200180831161044157829003601f168201915b50505050509080600401805461047390610fb1565b80601f016020809104026020016040519081016040528092919081815260200182805461049f90610fb1565b80156104ec5780601f106104c1576101008083540402835291602001916104ec565b820191906000526020600020905b8154815290600101906020018083116104cf57829003601f168201915b50505050509080600501805461050190610fb1565b80601f016020809104026020016040519081016040528092919081815260200182805461052d90610fb1565b801561057a5780601f1061054f5761010080835404028352916020019161057a565b820191906000526020600020905b81548152906001019060200180831161055d57829003601f168201915b50505050509080600601805461058f90610fb1565b80601f01602080910402602001604051908101604052809291908181526020018280546105bb90610fb1565b80156106085780601f106105dd57610100808354040283529160200191610608565b820191906000526020600020905b8154815290600101906020018083116105eb57829003601f168201915b50505050600783015460088401546009850180549495929460ff90921693509061063190610fb1565b80601f016020809104026020016040519081016040528092919081815260200182805461065d90610fb1565b80156106aa5780601f1061067f576101008083540402835291602001916106aa565b820191906000526020600020905b81548152906001019060200180831161068d57829003601f168201915b505050505090508a565b6000811180156106c657506001548111155b6106eb5760405162461bcd60e51b81526004016106e290610e5c565b60405180910390fd5b60008181526020819052604090819020600801805460ff19811660ff91821615179182905591517f073e8fa94a909d34c3fecb805ef61cfba1037d80ffee48c21f2b9b506ccb35b892610742928592911690610e9c565b60405180910390a150565b6000606080606080606080600080606060008b11801561076f57506001548b11155b61078b5760405162461bcd60e51b81526004016106e290610e5c565b60008b81526020819052604090208054600782015460088301546001840180549092600286019260038701926004880192600589019260068a019260ff9091169060098b019089906107dc90610fb1565b80601f016020809104026020016040519081016040528092919081815260200182805461080890610fb1565b80156108555780601f1061082a57610100808354040283529160200191610855565b820191906000526020600020905b81548152906001019060200180831161083857829003601f168201915b5050505050985087805461086890610fb1565b80601f016020809104026020016040519081016040528092919081815260200182805461089490610fb1565b80156108e15780601f106108b6576101008083540402835291602001916108e1565b820191906000526020600020905b8154815290600101906020018083116108c457829003601f168201915b505050505097508680546108f490610fb1565b80601f016020809104026020016040519081016040528092919081815260200182805461092090610fb1565b801561096d5780601f106109425761010080835404028352916020019161096d565b820191906000526020600020905b81548152906001019060200180831161095057829003601f168201915b5050505050965085805461098090610fb1565b80601f01602080910402602001604051908101604052809291908181526020018280546109ac90610fb1565b80156109f95780601f106109ce576101008083540402835291602001916109f9565b820191906000526020600020905b8154815290600101906020018083116109dc57829003601f168201915b50505050509550848054610a0c90610fb1565b80601f0160208091040260200160405190810160405280929190818152602001828054610a3890610fb1565b8015610a855780601f10610a5a57610100808354040283529160200191610a85565b820191906000526020600020905b815481529060010190602001808311610a6857829003601f168201915b50505050509450838054610a9890610fb1565b80601f0160208091040260200160405190810160405280929190818152602001828054610ac490610fb1565b8015610b115780601f10610ae657610100808354040283529160200191610b11565b820191906000526020600020905b815481529060010190602001808311610af457829003601f168201915b50505050509350808054610b2490610fb1565b80601f0160208091040260200160405190810160405280929190818152602001828054610b5090610fb1565b8015610b9d5780601f10610b7257610100808354040283529160200191610b9d565b820191906000526020600020905b815481529060010190602001808311610b8057829003601f168201915b505050505090509a509a509a509a509a509a509a509a509a509a50509193959799509193959799565b60015481565b828054610bd890610fb1565b90600052602060002090601f016020900481019282610bfa5760008555610c40565b82601f10610c1357805160ff1916838001178555610c40565b82800160010185558215610c40579182015b82811115610c40578251825591602001919060010190610c25565b50610c4c929150610c50565b5090565b5b80821115610c4c5760008155600101610c51565b600082601f830112610c75578081fd5b813567ffffffffffffffff80821115610c9057610c90611013565b604051601f8301601f191681016020018281118282101715610cb457610cb4611013565b604052828152848301602001861015610ccb578384fd5b82602086016020830137918201602001929092529392505050565b600080600080600080600060e0888a031215610d00578283fd5b873567ffffffffffffffff80821115610d17578485fd5b610d238b838c01610c65565b985060208a0135915080821115610d38578485fd5b610d448b838c01610c65565b975060408a0135915080821115610d59578485fd5b610d658b838c01610c65565b965060608a0135915080821115610d7a578485fd5b610d868b838c01610c65565b955060808a0135915080821115610d9b578485fd5b610da78b838c01610c65565b945060a08a0135915080821115610dbc578384fd5b610dc88b838c01610c65565b935060c08a0135915080821115610ddd578283fd5b50610dea8a828b01610c65565b91505092959891949750929550565b600060208284031215610e0a578081fd5b5035919050565b60008151808452815b81811015610e3657602081850181015186830182015201610e1a565b81811115610e475782602083870101525b50601f01601f19169290920160200192915050565b6020808252601b908201527f507265736372697074696f6e20646f6573206e6f742065786973740000000000604082015260600190565b90815260200190565b9182521515602082015260400190565b60006101408c8352806020840152610ec68184018d610e11565b90508281036040840152610eda818c610e11565b90508281036060840152610eee818b610e11565b90508281036080840152610f02818a610e11565b905082810360a0840152610f168189610e11565b905082810360c0840152610f2a8188610e11565b90508560e0840152841515610100840152828103610120840152610f4e8185610e11565b9d9c50505050505050505050505050565b600086825260a06020830152610f7860a0830187610e11565b8281036040840152610f8a8187610e11565b90508281036060840152610f9e8186610e11565b9150508260808301529695505050505050565b600281046001821680610fc557607f821691505b60208210811415610fe657634e487b7160e01b600052602260045260246000fd5b50919050565b600060001982141561100c57634e487b7160e01b81526011600452602481fd5b5060010190565b634e487b7160e01b600052604160045260246000fdfea26469706673582212205c7b1d21ef2015e84cffbb232dd096aeb81617054d03ee4da6878c0bd977711e64736f6c63430008000033",
  "immutableReferences": {},
  "source": "// SPDX-License-Identifier: MIT\r\npragma solidity ^0.8.0;\r\n\r\ncontract Prescription {\r\n    struct PrescriptionData {\r\n        uint256 id;\r\n        string patientId;\r\n        string doctorId;\r\n        string medicationName;\r\n        string dosage;\r\n        string frequency;\r\n        string duration;\r\n        uint256 timestamp;\r\n        bool isActive;\r\n        string notes;\r\n    }\r\n    \r\n    mapping(uint256 => PrescriptionData) public prescriptions;\r\n    uint256 public prescriptionCount = 0;\r\n    \r\n    event PrescriptionCreated(\r\n        uint256 id,\r\n        string patientId,\r\n        string doctorId,\r\n        string medicationName,\r\n        uint256 timestamp\r\n    );\r\n    \r\n    event PrescriptionUpdated(\r\n        uint256 id,\r\n        bool isActive\r\n    );\r\n    \r\n    function createPrescription(\r\n        string memory _patientId,\r\n        string memory _doctorId,\r\n        string memory _medicationName,\r\n        string memory _dosage,\r\n        string memory _frequency,\r\n        string memory _duration,\r\n        string memory _notes\r\n    ) public returns (uint256) {\r\n        prescriptionCount++;\r\n        \r\n        prescriptions[prescriptionCount] = PrescriptionData({\r\n            id: prescriptionCount,\r\n            patientId: _patientId,\r\n            doctorId: _doctorId,\r\n            medicationName: _medicationName,\r\n            dosage: _dosage,\r\n            frequency: _frequency,\r\n            duration: _duration,\r\n            timestamp: block.timestamp,\r\n            isActive: true,\r\n            notes: _notes\r\n        });\r\n        \r\n        emit PrescriptionCreated(\r\n            prescriptionCount,\r\n            _patientId,\r\n            _doctorId,\r\n            _medicationName,\r\n            block.timestamp\r\n        );\r\n        \r\n        return prescriptionCount;\r\n    }\r\n    \r\n    function getPrescription(uint256 _id) public view returns (\r\n        uint256 id,\r\n        string memory patientId,\r\n        string memory doctorId,\r\n        string memory medicationName,\r\n        string memory dosage,\r\n        string memory frequency,\r\n        string memory duration,\r\n        uint256 timestamp,\r\n        bool isActive,\r\n        string memory notes\r\n    ) {\r\n        require(_id > 0 && _id <= prescriptionCount, \"Prescription does not exist\");\r\n        PrescriptionData storage p = prescriptions[_id];\r\n        \r\n        return (\r\n            p.id,\r\n            p.patientId,\r\n            p.doctorId,\r\n            p.medicationName,\r\n            p.dosage,\r\n            p.frequency,\r\n            p.duration,\r\n            p.timestamp,\r\n            p.isActive,\r\n            p.notes\r\n        );\r\n    }\r\n    \r\n    function togglePrescriptionStatus(uint256 _id) public {\r\n        require(_id > 0 && _id <= prescriptionCount, \"Prescription does not exist\");\r\n        \r\n        prescriptions[_id].isActive = !prescriptions[_id].isActive;\r\n        \r\n        emit PrescriptionUpdated(_id, prescriptions[_id].isActive);\r\n    }\r\n    \r\n    function getPrescriptionsCount() public view returns (uint256) {\r\n        return prescriptionCount;\r\n    }\r\n}",
  "sourcePath": "C:\\Users\\Ryanf\\OneDrive\\Desktop\\FinalYearProject\\prescription-blockchain\\contracts\\Prescription.sol",
  "compiler": {
    "name": "solc",
    "version": "0.8.0+commit.c7dfd78e.Emscripten.clang"
  },
  "schemaVersion": "3.4.16",
  "updatedAt": "2025-03-21T17:49:38.587Z",
  "networkType": "ethereum",
  "devdoc": {
    "kind": "dev",
    "methods": {},
    "version": 1
  },
  "userdoc": {
    "kind": "user",
    "methods": {},
    "version": 1
  }
}